:400000000080002011000000911100009111000008B5044B1A6803F53F5302331A6001F0D7F800BFFA46004010B5054C237833B9044B13B10448AFF300800123237010BD63
:400040007081FF1F0000000014480000084B10B51BB108490848AFF300800848036803B910BD074B002BFBD0BDE81040184700BF000000007481FF1F14480000C880FF1FFA
:400080000000000008B501F0DFFC164B188800F0AFFD012002F0DCFF002002F0E5FF124A138801339BB21380104A1288934210D301F0C2F901F098F901220D4B1A704D20DF
:4000C00001F04EFC00F00EFE00F0EAFB0022064B1A80054B1A88074B33F81220014B1A8008BD00BFFCBCFF1F4CBDFF1F48BDFF1F70A9FF1FDC81FF1F10B5002002F0A8FF8C
:40010000012002F0B1FF02F0C7FDC4B2C0F30720044B19884B00044A02F811000133D45410BD00BF4CBDFF1F74A9FF1F38B5012002F08EFF154D2C78E4B201F007FCC0B289
:40014000134A10552B78DBB2D35CDBB25A2B0ED101226A70002308E00D49CA5CD2B20D48C2540022CA5401339BB2132BF4D9074B5B7813F0FF0F03D00022044B1A7038BD35
:40018000024A13780133DBB2137038BD8C81FF1F00BDFF1F50BDFF1F10B562B6794B00245C709C701C70784B1C80784B1C7000F085FB2146022002F097FD754801F01AF9E7
:4001C00001F012F9734801F03DF901F035F9724802F030FF01F09EFB642002F03BF906E000236E4A13556E4A13550134A4B2772CF6D9002304E000216A4AD15401339BB22B
:4002000041F287329342F6D9002001F0F1FA002000F00EF901F03EF8FF2001F0ABF8012803D0FF21002001F03DF8FF2001F0A2F808B900F05FFB642002F00CF9514B5B7840
:40024000DBB2012B7BD100224E4B5A70534B1B78413B122B73D8DFE803F02440535F620A7272147272727272727272656F0046224B4B1A70012000F0C9FC642002F0EAF871
:400280005DE001223F4B9A70002304E0464AD15C434AD1540133142BF8DD152000F0B6FC4DE03E4B5B7813F0FF0F07D13B4C204600F042F9A07800F0BBF840E0374B5B78FB
:4002C000DBB2012B3BD1354CA078142100F0EAFFE078152100F0E6FF31E0304C204600F08DF9204600F0EAFB304B188042222C4B1A70012000F08AFC642002F0ABF81EE065
:40030000264800F099F9294B18804322244B1A70012000F07BFC12E000F034F90FE000F031F90CE01D4800F0BFF952221C4B1A70022000F06BFC02E0184800F009F9134B5A
:400340001B78002B3FF477AF15E0012002F08CFE012002F07DFE4FF4FA7002F07BF8002002F082FE002002F073FE4FF4FA7002F071F8013400E00024042CE6DD0022034B7B
:400380001A7058E78C81FF1F4CBDFF1F70A9FF1F85000000F90000002D01000050BDFF1FF8A8FF1F74A9FF1F18BDFF1F48BDFF1F08B5002001F010F901F072FA01F0D8F90F
:4003C00002F0FEFC08BD00BF70B506460C46C0B201F09EF8642002F03DF802F05DFC094D288002F059FC084B1880C0F30B00074B1880074B23F8146005342A8823F81420E8
:4004000070BD00BF9081FF1F66BDFF1F64BDFF1F34BDFF1F08B5012001F0DEF801F02CFA01F090F902F0A6FC01F056F808BD00BF38B5044601F09EF8002001F069F8FFF75F
:40044000B7FF642002F006F8354B33F8144002F01BFC02210020FFF7B7FF600002F072FF02460B4600202F4903F0FCF803F0E2F903F030FA0446FA2802DD00EBD0746410A7
:40048000042001F089F8A5B200212846FFF79CFF04EBD474C4F34F0401212046FFF794FF002001F079F803212046FFF78DFF04212846FFF789FF002001F02AF8FFF7AAFF6C
:4004C000194B9B7813F0FF0F0ED1002321E0174A32F81320D4B2120A5900013114484254013300F8134000E00023092BEFDD41220F4B1A70152000F089FB38BD0B4A32F8AE
:400500001300040A5A0001320A498C54013301F81300092BF2DD4122064B1A7038BD00BF184800000040BF409081FF1F34BDFF1FF8A8FF1F18BDFF1F08B58078C0B2034BA2
:400540001870072801D801F053F908BD14BDFF1F10B54378522B09D1094C5323237000F073F96070022000F051FB10BD532B06D1807800F03FF900F001FB00F01DFB10BD38
:40058000F8A8FF1F38B500F071F900F021FF58BB00F066FF08B100F06FFF144C00232380134B1B88134D2B8000F060F901F04CFA02F0E4FA288800F01BFB142001F04AFF01
:4005C00002F062FB0A2001F045FF02F065FB2388C0F30721084AD1540133C0B2D054238000F0F0FE00F022FF38BD00BF4CBDFF1FDC81FF1FFCBCFF1F74A9FF1F10B504462C
:4006000001F0AAFC63781C4600F01EF908B1102300E00123B3FBF4F303EB8302C3EB42131C02A4B2600801F01DFC601E80B201F013FC01F07BFC10BD10B5044601F08CFC91
:40064000637813F0FF0F0AD1A278E3786079217943EA022200F06CFA104B18800DE0022000F088FE84B2092000F084FE82B221467F2000F05DFA094B18804FF4D85001F012
:40068000F1FB43F2FF5001F0E7FB054B1A88054B1A8001F04BFC014B188810BD48BDFF1FDC81FF1FFCBCFF1F10B5437873B3454C45232370002000F05DFE6070012000F038
:4006C00059FEA070022000F055FEE070032000F051FE2071042000F04DFE6071052000F049FEA071062000F045FEE071072000F041FE2072082000F03DFE6072092000F07E
:4007000039FEA0720B2000F081FA10BD04460A21807800F0C7FD2C4B186008B100F08CFA0B21E07800F0BEFD274B186008B100F083FA0C21207900F0B5FD234B186008B188
:4007400000F07AFA0D21607900F0ACFD1E4B186008B100F071FA0E21A07900F0A3FD1A4B186008B100F068FA0F21E07900F09AFD154B186008B100F05FFA1021207A00F01B
:4007800091FD114B186008B100F056FA1121607A00F088FD0C4B186008B100F04DFA1221A07A00F07FFD084B186008B100F044FA1321E07A00F076FD034B186008B100F0D3
:4007C0003BFA10BDF8A8FF1F30BDFF1F38B504460D4600F05FFD0A2001F052FE00F0DEFD2946204600F05EFDC4B200F057FD204638BD00BF10B5094C20700021FFF7E6FF88
:400800002378022B02D101F043FA01E001F0CEF900F0B4F900F0D0F910BD00BF4ABDFF1F10B5044600F036FD0A2001F029FE00F0B5FD0A2001F024FE204600F09BFD0446C4
:4008400000F02CFD204610BD08B50020FFF7E8FF08BD00BF08B502F091F900F0FFFF00F029FF01F0F1F801F025FB08BD08B502F0A7FA01F015F800F07BFF00F0ABF9012092
:4008800001F0E8FD054B188800F0B2F90A2001F0E1FD01F0FBF801F05FFB08BDFCBCFF1F08B502F067FA00F087F900F0E5FF00F049FF01F0D7F801F039FB08BD08B5FFF72B
:4008C000C9FFFFF7EDFF01F0EBF800F075FE00F0D9FD01F001F900F0D5FD00F04FF9002001F0EEF8012000F077FE002000F0DAFD08BD00BF08B500F0CDFC00210A2000F0D3
:40090000D1FC344B186008B100F096F901210A2000F0C8FC2F4B186008B100F08DF902210A2000F0BFFC2B4B186008B100F084F903210A2000F0B6FC264B186008B100F00C
:400940007BF904210A2000F0ADFC224B186008B100F072F905210A2000F0A4FC1D4B186008B100F069F906210A2000F09BFC194B186008B100F060F907210A2000F092FCD1
:40098000144B186008B100F057F908210A2000F089FC104B186008B100F04EF90921D02000F080FC0B4B186008B100F045F9FF21012000F077FC074B186008B100F03CF955
:4009C0000021012000F06EFC024B186008B100F033F908BD30BDFF1F884210D203B20BE09BB2104820F81230013292B241F28730824214D801331BB28B42F1DD0FE003B255
:400A00000BE09BB2074820F81230013292B241F28730824203D8013B1BB28B42F1DA1046704700BFDC81FF1F2DE9F041BDF8184041F28836B4423AD85D08884218D200B2D5
:400A400013E080B22B189BB21A4F27F81430631C9BB2461BB6B227F813600234A4B241F288339C4223D8104400B28842E9DD1EE090460F4602B218E096B2AB199BB20D4862
:400A800020F81430631C9BB2711B89B220F813100234A4B22146084802F082FF41F288339C4204D8C8EB060212B2BA42E4DA2046BDE8F081DC81FF1F284800002DE9F041C7
:400AC00082B08478E4B2C578EDB2037913F0FF0F0DD1A6B2ADB2002229463046FFF77CFF421E92B231462846FFF776FF15E0477990F80680A6B2ADB20023009343463A468F
:400B000029463046FFF790FF013880B2009043463A4631462846FFF787FFA4B2034B23F81040013080B202B0BDE8F081DC81FF1F10B4104BA3FB0232D208002303E00E4C06
:400B400024F813000133132BF9DD03E00A4C24F81310013302F11404A342F7DB03E0064921F81300013302F128018B42F7DB98B210BC7047CDCCCCCCDC81FF1F08B5FFF717
:400B800063FE0B4B1870022809D101F001F84FF40062084B1A80012000F0AEFF08BD01F0CBF88022034B1A80002000F0A5FF08BD4ABDFF1F16BDFF1F08B5054B1B78022B59
:400BC00002D101F031F808BD01F0FEF808BD00BF4ABDFF1F08B5054B1B78022B02D101F03DF808BD01F006F908BD00BF4ABDFF1F08B5054B1B78022B02D100F0E3FF08BD58
:400C0000C0B201F061F808BD4ABDFF1F08B5034608485A22C254591CC9B200F0BFFE002304E00021034AD1540133DBB2772BF8D908BD00BFF8A8FF1F08B5024800F09CFEE8
:400C400008BD00BF34480000F8B507460E46002423E0772C03DC3A5D204B1A551CE0204A84FB0223E518E317C3EBA515C5EB0515EB00E51A0DD164B17821184800F08EFE87
:400C8000002304E00021154AD1540133DBB2772BF8D93A5D114B5A550134B442D9DB104A84FB0223E218E317C3EBA213C3EB0313DA00A31A09485A22C254591C4254991C80
:400CC000C9B200F06BFE002304E00021034AD1540133DBB2772BF8D9F8BD00BFF8A8FF1F8988888810B5184B198849001748FFF7ABFF002303E00021144AD154013341F2DD
:400D000087329342F7DD00230EE0114A32F81310C9B232F81300C0F307205A000B4C04F813000132A1540133074A12889342ECDB4FF4FA7001F08EFB034B198849000348B9
:400D4000FFF782FF10BD00BF48BDFF1F74A9FF1FDC81FF1FFEE700BFF0B40022174611E050F82760F3B226F0FF0608E001EB420511F812406D78A5550132013BDBB2002BD4
:400D8000F4D101371D2FEBD9F0BC7047154B1B78DBB203F00701144A11701B09013213708022124B1A700223114A1370182102F6E40211700432137040220E490A705831F6
:400DC0000B7001200B31087075310A700A4A13703E3213700C22094B1A704422A3F2E2231A707047CF0100496E5800401D5100403C510040285A0040045B0040585B00407E
:400E000008B50A46002102F0C2FD08BD08B502F0B3FD08BD38B56322344B1A801823344A13700024023214805021023211705F2102321180023213704FF49C710232118000
:400E40000232137004222B492B48FFF7DFFF02222A4B1A7008224FF040231A70032103F500731970264B1B78DBB226490B70264B1A8041F25122023B1A8019250CE0234BAE
:400E80001B7803F0010343EA440404F003044FF4F07002F0F5F8013D0DB1032CEFD115B90320FFF757FF1A4B4FF480721A8007221A70002217490A704820023108701A700E
:400EC0000222033B1A7004220A331A70124A137843F00F031370013A137843F001031370013A137843F08003137038BD80400040824000401C050048004100400043004087
:400F000008010049A146004022420040254200400440004006400040A2430040022807D8044B53F820201844017B13780B431370704700BF3C480000022808D8044B53F809
:400F400020201844017B137823EA0103137070473C480000B0B910B44000C0B20A4A02EB8003196913181C7E0B7823430B70431CD8B202EB800319691044027E0B78134329
:400F80000B7010BC704700BF3C480000C0B910B44000C0B20B4A02EB8003196913181C7E0B7823EA04030B70431CD8B202EB800319691044027E0B7823EA02030B7010BC58
:400FC000704700BF3C480000012809D8054B03EB8002D269184490F8241013780B431370704700BF3C48000001280AD8054B03EB8002D269184490F82410137823EA0103CA
:40100000137070473C480000012809D8054B03EB8002926A184490F8301013780B431370704700BF3C48000001280AD8054B03EB8002926A184490F83010137823EA01032B
:40104000137070473C48000038B572B63B4A137843F00403137000240BE0394863001A19510001440A46098F506BFFF7C9FE0134E4B2072CF1D900240BE03149A30018198F
:40108000420088188022816E406EFFF7BFFE0134E4B2002CF1D02B494FF09040FFF75CFE0A25294B1D7004212848FFF7A9FE284A137843F0020313701032137843F00203B2
:4010C0001370244C237843F040032370A2F58632513A137843F01003137008221E491F48FFF794FE2A461E491E48FFF78FFE08221D491E48FFF78AFE08221D491D48FFF78C
:4011000085FE08221C491D48FFF780FE1C4A137843F0080313701B4D61232B70FFF77AFE81232B700122184B1A70FFF72FFE0E2221461648FFF76AFE38BD00BFE846004036
:401140003C48000078000048835800400076004003500140A0430040F004004802510040F8040048C051004004050048125100400C0500482251004014050048325100401B
:40118000224300400048004004000840B043004008B502F0C5FB03680C2B00D1FEE7FEE708B5094B1A681044084BC31A802B02DC054B186005E002F0B3FB0C2303604FF019
:4011C000FF32104608BD00BFCC80FF1F78BDFF1F08B5104E104D16E029686B68AC68002204E051F8040B43F8040B0432A242F8D1E868002203E0002143F8041B04328242EC
:40120000F9D11035013E002EE6D102F08FFBFEF7C3FFFEE7010000006849000008B5114A114B1A60114A136843F40073136000230AE0032B03D80E4A52F8231000E00D49AF
:401240000D4A42F8231001332F2BF2D90B4B1A780B4B1A70084A0B4B1A60FFF7F5FE00F067FF08BD0004FA050CED00E014ED00E000000000911100000080FF1FBC760040F4
:40128000C080FF1F08ED00E008B501F085F801F08DF808BD08B5FFF7F7FF08BD08B501F0AFF808BD30B583B00C468DF8070001F01DF9B4F5006F52D22509A4EB0514A4B2A8
:4012C00001F0C0F900284CD101230DF107022146402001F037F9044607282FD1234B1B7813F0020FFAD0214B1B7813F0020F06D01E4B1B789B0805D04FF0FF3403E04FF0A3
:40130000FF3400E00024E4B9194A537812782946402001F053F9072816D1144B1B7813F0020FFAD0114B1B7813F0020F0FD00F4B1B789B0810D04FF0FF340DE0012809D17B
:401340000AE04FF0FF3407E04FF0FF3404E04FF0FF3401E04FF0FF3401F09AF902E0012400E00424204603B030BD00BF2247004068BDFF1F38B5044601F08AFE054601F0DF
:4013800051F804F1804000F500400478E4B201F057F8284601F080FE204638BD08B500F0FBFFC0B208BD00BF014B1B68D864704708ED00E04001C0B2014B1870704700BF3F
:4013C00003E400E00822014B1A60704700E100E0044B1B6813F0080F01D0012070470020704700BF00E100E00822014B1A60704780E100E010B50446FFF7F6FF2046FFF794
:40140000D3FF0720FFF7D6FFFFF7DCFF10BD00BF014B1B685864704708ED00E04001C0B2014B1870704700BF01E400E00222014B1A60704700E100E00222014B1A607047AF
:4014400080E100E010B50446FFF7F6FF2046FFF7DFFF0720FFF7E2FFFFF7E8FF10BD00BF044B1B6813F0040F01D0012070470020704700BF00E100E00422014B1A60704705
:4014800080E100E010B5002404E02046FFF77EFD0134E4B2002CF8D0FF22014B1A7010BDD080FF1F10B50446FFF7ECFF2046FFF751FD014B1C7010BDD080FF1F054A1378CF
:4014C00043F0040313701032137843F004031370704700BFA8430040054A137803F0FB0313701032137803F0FB031370704700BFA8430040054B1A7802F0FD021A701A78E5
:4015000000F0020010431870704700BF28580040014B1870704700BF825B0040094B1B7803F00C035B08084A127812F0040F00D0013303F1924393F82831DBB2034A1370F6
:40154000704700BF28580040295800400A46004008B51022064B1A70013300221A701A78D2B21A700220FFF7C5FFFFF7D7FF08BD2858004008B5074B1B7823B9FFF7E8FF12
:401580000122044B1A70FFF799FF7820FFF7C0FF08BD00BF9581FF1F08B5064B1A7802F0FB021A701A7800F0040010431870FFF7B5FF08BD2958004010B5002404E02046BF
:4015C000FFF7BAFC0134E4B2022CF8D9FF22014B1A7010BDD180FF1F10B50446FFF7ECFF2046FFF79BFC014B1C7010BDD180FF1F054A137843F0010313701032137843F0B7
:4016000001031370704700BFA8430040054A137803F0FE0313701032137803F0FE031370704700BFA8430040054B1A7802F0FD021A701A7800F0020010431870704700BF1A
:4016400020580040014B1870704700BF805B0040064B1B78C3F3810303F19243063393F82031DBB2024A1370704700BF205800400846004008B5064B1A7802F0F3021A7028
:401680001A7800F00C0010431870FFF7E1FF08BD2058004010B50024054B1C7001331C700420FFF7E7FF2046FFF7BEFF10BD00BF2058004008B5074B1B7823B9FFF7EAFF2F
:4016C0000122044B1A70FFF793FF8020FFF7BAFF08BD00BF9681FF1F044B1B7813F0200F03D1034B1A78034B5A70704721580040805B00409881FF1F0E4B1B7813F0200F9E
:4017000016D10D4B1B7813F0080F0DD00A4B1A7802F0F7021A70094A5178094A11701A7842F008021A707047044B5A78044B1A70704700BF21580040875A00409881FF1F04
:40174000805B004008B5084B1B7813F0010F03D00122064B1A7002E00022044B1A70FFF755FFFFF7B9FF08BDA84300409881FF1F08B5FFF7C1FF054B1B78012B05D1FFF77D
:4017800037FF034B1878FFF75DFF08BD9881FF1F805B0040084A137843F0040313701032137843F00403137002F5A5521E32137843F0800313707047A9430040054A1378C9
:4017C00003F0FB0313701032137803F0FB031370704700BFA9430040044A137803F0FC0300F0030018431070704700BF09580040072809D8054B1A7802F08F021A701A7851
:401800000001C0B210431870704700BF0A580040032809D8054B1A7802F0F3021A701A788000C0B210431870704700BF0A58004010B50224084B1C700C2201331A70012293
:4018400001331A700020FFF7D3FF0320FFF7E0FF2046FFF7C1FF10BD0858004008B5054B1B7823B90122034B1A70FFF7E1FFFFF791FF08BD9A81FF1F08B5074B1B7813F0CB
:40188000040F05D00122054B1A70FFF797FF08BD0022024B1A7008BDA94300409C81FF1F08B5034B1B78012B01D1FFF773FF08BD9C81FF1F7222084B1A702022A3F580738B
:4018C0001A700622A1331A70472210331A700222B23B1A70704700BF8965004010B501F0D7FB04460A4A137843F020031370A2F58072137843F010031370013A137843F003
:401900001003137000F034FB204601F0C5FB10BD9965004008B5054B1B7823B9FFF7CAFF0122024B1A70FFF7D9FF08BDA081FF1F014B1878704700BF49650040024B1878AC
:4019400000F07F00704700BF6964004010B5FFF7F5FF0402FFF7ECFF204380B210BD00BF034B1B7813F0040FFAD1024B18707047686400404B65004038B5074B1B782BB9BE
:4019800038BDFFF7EDFF0134A4B201E005460024285D0028F5D138BDA081FF1F084B1B7833B97047305DFFF7DBFF0134E4B203E070B50D4606460024AC42F3D370BD00BFB2
:4019C000A081FF1F084A137843F060031370A2F5A652133A137843F0020313701032137843F002031370704777580040094B1A7802F0FD021A7008490A7802F0FD020A70A3
:401A00001B7813F0FF0F04D1044A137803F09F0313707047A4430040B443004077580040054B1A7802F0FC021A701A7800F0030010431870704700BF5A58004008B5032014
:401A4000FFF7EEFF08BD00BF08B5054B1B7823B90122034B1A70FFF7F1FFFFF7B3FF08BDA281FF1F08B5074B1B7813F0020F05D00122054B1A70FFF7B9FF08BD0022024B8A
:401A80001A7008BDA4430040A481FF1F08B5034B1B78012B01D1FFF795FF08BDA481FF1F10B5002404E02046FFF7BEFA0134E4B2012CF8D9FF22014B1A7010BDD280FF1F61
:401AC00010B50446FFF7ECFF2046FFF79DFA014B1C7010BDD280FF1F10B5002404E02046FFF782FA0134E4B2012CF8D9FF22014B1A7010BDD380FF1F10B50446FFF7ECFF5B
:401B00002046FFF761FA014B1C7010BDD380FF1F70B54FF4804341F6FF720121084600F035FA0C4E307000F0A5FB02460A4C254605F8040B0123102100F0B6FB45F68132F3
:401B4000A9B2207800F0C4FB2178307800F064FB70BD00BFA581FF1FD480FF1F08B500F07FFA034B1B78FF2B01D1FFF7D1FF08BDD480FF1F08B50121044B187800F0F2FAF7
:401B800000F0BAFA00F020FA08BD00BFA581FF1F08B5054B5B7823B9FFF7E0FF0122024B5A70FFF7E7FF08BDA581FF1F08B500F0B1FA034B187800F0F1FA00F013FA08BD2C
:401BC000A581FF1F38B500F00F05C0F30714B0F57F6F02D9002000F03BFCFF2C08D0002318E00E4A1A44FF2111710133DBB200E000230F2BF5D938BDC5F11002934203DA7C
:401C0000064A1A44147103E0044A1A44611C11710133DBB20F2BEFD938BD00BFD480FF1F08B500F033FA08BD08B5084B1B7813F0020F03D00122064B1A7002E00022044B80
:401C40001A70FFF7B3FFFFF7EBFF08BDA8430040A881FF1F08B500F029FA08BD08B5FFF7F9FF034B1B78012B01D1FFF783FF08BDA881FF1F054A137843F00803137010329B
:401C8000137843F008031370704700BFA8430040054A137803F0F70313701032137803F0F7031370704700BFA8430040054B1A7802F0FD021A701A7800F002001043187053
:401CC000704700BF2C580040014B1870704700BF835B0040064B1B78C3F3810303F19243063393F83831DBB2024A1370704700BF2C5800400B46004008B5064B1A7802F075
:401D0000F3021A701A7800F00C0010431870FFF7E1FF08BD2C58004010B50024054B1C7001331C700420FFF7E7FF2046FFF7BEFF10BD00BF2C58004008B5074B1B7823B9F0
:401D4000FFF7EAFF0122044B1A70FFF793FF8020FFF7BAFF08BD00BFA981FF1F044B1B7813F0200F03D1034B1A78034B5A7070472D580040835B0040AC81FF1F0E4B1B7834
:401D800013F0200F16D10D4B1B7813F0080F0DD00A4B1A7802F0F7021A70094A5178094A11701A7842F008021A707047044B5A78044B1A70704700BF2D5800409F5A00405F
:401DC000AC81FF1F835B004008B5084B1B7813F0080F03D00122064B1A7002E00022044B1A70FFF755FFFFF7B9FF08BDA8430040AC81FF1F08B5FFF7C1FF054B1B78012B5A
:401E000005D1FFF737FF034B1878FFF75DFF08BDAC81FF1F835B0040024A137843F080031370704775650040024A137803F07F031370704775650040014B1880704700BF67
:401E4000086A0040024B1B78024B188880B2704714650040A86A0040014B1880704700BF886A0040014B1880704700BF486A004008B50F4A137803F0C00343F00A031370FD
:401E80001F32137843F0010313700132137843F00103137040F65F10FFF7CEFF40F65F10FFF7DAFF4FF49660FFF7DCFF08BD00BF7565004008B5054B1B7823B9FFF7D8FF47
:401EC0000122024B1A70FFF7A7FF08BDAE81FF1F014B1878704700BF75650040014B1870704700BF75650040014B188880B27047886A004010B5FFF7F7FF044CA080FFF74C
:401F0000A1FF6080FFF7E4FFA07110BDB081FF1F10B5054CA088FFF79FFF6088FFF78CFFA079FFF7DBFF10BDB081FF1F08B5084B1B7813F0800F03D00122064B1A7002E0F3
:401F40000022044B1A70FFF76FFFFFF7D3FF08BD75650040B081FF1F08B5FFF7D9FF034B1B780BB1FFF758FF08BD00BFB081FF1F054A137843F0080313701032137843F029
:401F800008031370704700BFA2430040F0B583B016461F460B4D00242C700194009423460A460146204600F043F93A463146287800F018F90221287800F002F9287803B0F3
:401FC000F0BD00BFE880FF1F054A137843F0020313701032137843F002031370704700BFA8430040054A137803F0FD0313701032137803F0FD031370704700BFA8430040FD
:40200000054B1A7802F0FD021A701A7800F0020010431870704700BF24580040064B1B78C3F3810303F19243063393F83031DBB2024A1370704700BF245800400946004089
:4020400008B5064B1A7802F0F3021A701A7800F00C0010431870FFF7E1FF08BD2458004008B50023084A13700132137002F26A22137843F0080313700420FFF7E1FF02203C
:40208000FFF7BEFF08BD00BF24580040044B1B7813F0200F03D1034B1A78034B5A70704725580040815B0040B881FF1F0E4B1B7813F0200F16D10D4B1B7813F0080F0DD07F
:4020C0000A4B1A7802F0F7021A70094A5178094A11701A7842F008021A707047044B5A78044B1A70704700BF255800408F5A0040B881FF1F815B0040054A137843F00403A8
:4021000013701032137843F004031370704700BFA2430040054A137803F0FB0313701032137803F0FB031370704700BFA24300400B4A7F2313708021517007E0DA0002F13D
:40214000804202F5F042013BDBB21370002BF5D1DB0003F1804303F5F04300221A707047EC80FF1F172815D831B103010A495A5C42F020025A5405E0030107495A5C02F08F
:40218000DF025A540001044A835C43F00103835400207047012070471070004017280BD80001064BC25C02F0FE02C254C25C02F0DF02C254002070470120704710700040D5
:4021C00017280BD80001064A835C03F0F103490001F00E011943815400207047012070471070004041F6FF73994201D14FF4005141F6FF739A4201D14FF40052172808D8C8
:40220000C00000F1804000F5EC408180C280002070470120704700BF172805D8034B03EB0010417200207047012070471070004017281BD810B4C00000F1804404F5EC443D
:40224000D201D2B201F07F01114321709DF804201201D2B203F00F03134363709DF8083003F00F03A3700020E07001E00120704710BC704710B500F00BFF0A4B5B78182B78
:402280000BD9084A1478013B5370E30003F1804303F5F0431B78137000E0FF2400F0FCFE204610BDEC80FF1F10F0800F0CD111F4704F0BD1C00000F1804000F5F0400180B5
:4022C0008270C37000207047012070470120704710F0800F08D1C00000F1804000F5F0408180C280002070470120704710B500F0FDF800F0A7F910BB012000F085F907287F
:4023000018D102210F4800F003F902280AD102E0012000F0B5F80C4B1B7813F0020FF7D0002409E0084B1B7813F0020FE9D04FF0FF3401E04FF0FF3400F0AAF900E00424C4
:40234000204610BD68BDFF1F2247004010B500F0CDF800F077F9D0B900F0B6F90446072812D102E0012000F08BF80A4B1B7813F0020FF7D0074B1B7813F0020F04D0054B8A
:402380001B789B0800D1002400F082F900E00424204610BD2247004008B5FFF7D7FF034610B9FFF7A3FF0346184608BD08B500F06FFE0F4A137843F0080313701032137878
:4023C00043F008031370C8220A4B1A700A4A137843F0100313701032137843F010031370064B1B7813F0200FFAD000F055FE08BDA043004001470040AC43004000470040CC
:4024000008B500F045FE064A137803F0EF0313701032137803F0EF03137000F03DFE08BDAC430040054A137843F001031370034B1B7813F0020FFAD0704700BF02470040C3
:40244000024A137803F0FE03137070470247004001BE704710B5044605E0084B186800F00FFEA4F50044B4F5004FF6D8034B586800FB04F000F004FE10BD00BFF480FF1FE4
:4024800008B5034B1B7A00FB03F000F0F9FD08BDF480FF1F70B504460E46074B1D681F2802D90020FFF7D4FF04F01F04103455F8240045F8246070BD08ED00E038B50446E6
:4024C0000D46072902D90020FFF7C2FF1F2C02D90020FFF7BDFF04F01F0000F1604000F564406D01EDB2057038BD00BF08B500F0CFFD064A137843F008031370103213785A
:4025000043F00803137000F0C7FD08BDA043004070B506460D4600240CE00120FFF7B0FF064B1B7813F0010FF7D0054B1B7833550134E4B2AC42F3D3204670BD22470040C0
:402540002047004030B43E2801D81F2B03D93F2827D90F2B27D8174C247814F0020F24D0154CB6252570D4252570012525700234247814F0020F1AD10F4C2070C1F3002018
:402580002070C9B22170591EC9B22170002104E0545C094804700131C9B29942F8D3072006E0012004E0012002E0042000E0092030BC7047224700402047004030B4104CBA
:4025C000247814F0020F15D00E4CB6252570D8252570052525700234247814F0020F0BD1084C2070080A2070C9B2217022702370072002E0042000E0092030BC704700BF18
:4026000022470040204700400C4B1B7813F0020F0FD00B4BB6221A70E1221A700E221A7002331B7813F0020F05D1054B187007207047042070470920704700BF22470040E3
:402640002047004010B500F023FD0F4B1B78A3B901220D4B1A700D4B1B6813F0010F0ED00A4A136823F00103136000BF00BF00BF0122054B5A60002402E0042400E00024CF
:4026800000F00AFD204610BDBC81FF1F0400084008B500F0FDFC0A4B00221A705B68012B0AD1084A136843F00103136000BF00BF00BF0022024B5A6000F0EEFC08BD00BF9D
:4026C000BC81FF1F04000840074B1B7813F0020F08D0064BB6221A70E0221A700D221A700720704704207047224700402047004038B59DF810506C1EE4B2012C51D80138D0
:4027000009282ED8DFE800F0052D2D052D2D0F192D230F2B03D92548007840B222E02448007840B21EE00F2B03D92248007840B218E02148007840B214E00F2B03D91F488C
:40274000007840B20EE01E48007840B20AE00F2B03D91C48007840B204E01B48007840B200E0002001EB401101FB02F1C90B8AB20D2B0BD8C3F10E0289B211418AB2691E47
:40278000124800EB810101338B7005E06B1E0F4901EB83030F219970013D0C4B23F8252038BD0020FFF754FE38BD00BF180100491C010049190100491D0100491A010049B6
:4027C0001E0100491B0100491F010049C481FF1FF8B5074600F05CFC06460D4D2B7843F003032B700B4C237843F0030323700A4B1F700320FFF744FE2B7803F0FC032B70B4
:40280000237803F0FC032370304600F045FCF8BDF8460040F94600409258004070B5044600225D4B1A72012858D138225B4B1A70062202331A700923594A137000250132C3
:402840001570013215701F210132117002321570013215700132157001260A321670142102F527621170042101321170013213704C4B1D7022230432137024210132117035
:4028800001321670022102321170013213702822454B1A70EB2201331A704420FFF798FF5822424B1A7001331D7005331E7001331E7001331D700A2201331A704FF47A72FD
:4028C0003B4B1A603146032000F0A8FA31460E2000F02AFB37491D20FFF7DCFD022C59D138222E4B1A70062202331A7009232C4A1370002401321470013214701F210132A0
:40290000117002321470013214700132147001250A321570142102F527621170013213700A26254B1E7001331C70112203331A70122201331A7001331D70022202331A70A6
:40294000222201331A70282201331A70EB2201331A704420FFF73CFF5822144B1A7001331C70052205331A7001331D7001331C7001331E704FF4FA620D4B1A60294603209B
:4029800000F04CFA29460E2000F0CEFA0B491D20FFF780FD70BD00BFC481FF1F004E0040034E00408758004090580040945800406CBDFF1FE52D000086580040E92D00001A
:4029C0002DE9F04182B0304D4FF0010885F800802E4E00247472102000F00EFA102000F091FA07211D20FFF769FD0427284B1F7001331C7007331C70264A137843F0180386
:402A00001370254B1C7003F2F5231C7001331C700A22A3F209331A7001331C7002331C70122205331A70132201331A7004331C701422A3F68C231A70CDF800800C234FF44B
:402A4000004248F65C710520FFF752FE022300930C234FF4004248F6B6513846FFF748FE2B78013B06EB83039A780C4B1A702B78013B36F823200A4B1A802878FFF7CEFE49
:402A800002B0BDE8F08100BF0481FF1FC481FF1F96580040075B0040935800400E4E00400C4E004070B500F0F3FA06462A4B1B782A4B1A7842F001021A701A7842F0100266
:402AC0001A7010331A7842F001021A701A7842F010021A70224D2B7843F002032B70214C237843F0020323701F4A137843F0030313700320FFF7C4FC2B7803F0FD032B70E6
:402B0000237803F0FD032370184A137843F0060313707A22164B1A70164A137843F0010313701032137843F0010313700F3A137843F0020313701032137843F002031370FE
:402B40004FF000530C4A1360A2F5C0721360304600F0A2FA70BD00BF0481FF1FAA430040F8460040F9460040915800407758004082580040A143004080E200E008B5084B3B
:402B80009B7A4BB9064BDB7A13F0FF0F01D1FFF717FF0122024B9A72FFF784FF08BD00BFC481FF1F70B500F073FA0646314A137803F0FE0313700132137843F004031370C5
:402BC0002D4D2B7843F002032B702C4C237843F00203237002F52962137803F0FC0313700132137803F0F70313700320FFF748FC2B7803F0FD032B70237803F0FD032370A8
:402C00001F4B1A7802F0EF021A701A7802F0FE021A7010331A7802F0FE021A701A7802F0EF021A70174A137803F0F9031370A2F5A652163A137803F0FE03137010321378C1
:402C400003F0FE03137002F5A6521132137803F0F7031370A2F5A752137803F0FD0313701032137803F0FD031370304600F014FA70BD00BF004E0040F8460040F9460040F1
:402C8000AA43004077580040024A137843F0010313707047004E00400E4B1B7803F00303012B03D80C4B188880B209E00A4A12780A49087842EA0020032B01D1084B1B7821
:402CC000084B1B7A13F0FF0F02D00022054B5A7200B27047144E0040104E0040114E0040124E0040C481FF1F38B5431EDBB2012B20D804460D46114B9B7A13B901220F4B2A
:402D0000DA720F4B1C70FFF74DFF2046FFF786FD013C0A4B03EB840291780A4A117033F82420094B1A80012D07D1FFF727FFFFF7ABFF38BD0020FFF78BFB38BDC481FF1F54
:402D40000481FF1F0E4E00400C4E0040024B1A78024B5A70704700BF004E00400881FF1F024B5A78024B1A70704700BF0881FF1F004E004008B50F4B1B7813F0010F12D099
:402D80000C4B1B7813F0100F0DD001220A4B1A700A4B1B7813F0010F02D00322064B1A70FFF700FF02E00022034B1A70FFF7CEFF08BD00BFAA4300400881FF1F004E0040E1
:402DC00008B5FFF7CDFF064B1B7843B1FFF76AFE034B1B7813F0020F01D0FFF755FF08BD0881FF1F704700BF704700BF014B188880B2704784400040034B1A7800F0F80015
:402E000010431870704700BF86400040024B187800F00700704700BF8640004070B504460D46FFF7F3FF0646FFF7E0FFA04257D02C4B1B7803F00203DAB296B900B184B94C
:402E400038B9294B1C80294A137803F0BF03137070BD264A137843F040031370224B1C8070BD22B3002322490B7002260F310E7004310B700C390B7803F07F030B701B4B32
:402E80001B7813F0080F00D08CB91A4B18800721013B1970164B1B7813F0010FFAD111490B7803F0FD030B700021114B19700D4B1B7813F0020F0DD00E4B1C800DB103228F
:402EC00000E001220A4B1A70094B1B7813F0010FFAD170BD044B1C8002490B7813430B7070BD00BFA243004084400040864000400140004002400040014B188880B2704781
:402F000000410040034B1A7800F0F80010431870704700BF02410040024B187800F00700704700BF0241004070B505460E46FFF7F3FF0446FFF7E0FFA84256D02B4B1B78C3
:402F400003F0010294B900B185B938B9284B1D80284A137803F0BF03137070BD254A137843F040031370224B1D8070BD22B3002321490B70012413310C7004390B700839D7
:402F80000B7803F07F030B701A4B1B7813F0080F00D08DB9194B18800721013B1970164B1B7813F0010FFAD110490B7803F0FE030B700021104B19700C4B1B7813F0010F6E
:402FC0000DD00E4B1D800EB1032200E001220A4B1A70094B1B7813F0010FFAD170BD044B1D8002490B7813430B7070BDA14300400041004002410040014000400240004063
:40300000014B1B681864704708ED00E04001C0B2014B1870704700BF00E400E00122014B1A60704700E100E00122014B1A60704780E100E010B50446FFF7F6FF2046FFF760
:40304000DFFF0720FFF7E2FFFFF7E8FF10BD00BF044A137803F0FD03400000F0020018431070704720510040044A137803F0EF03000100F0100018431070704710510040D8
:403080000230800803D000BF01380046FCD17047EFF3108072B6704780F31088704700BF81F0004102E000BF83F0004330B54FEA41044FEA430594EA050F08BF90EA020F1E
:4030C0001FBF54EA000C55EA020C7FEA645C7FEA655C00F0E2804FEA5454D4EB5555B8BF6D420CDD2C4480EA020281EA030382EA000083EA010180EA020281EA0303362DF1
:4031000088BF30BD11F0004F4FEA01314FF4801C4CEA113102D0404261EB410113F0004F4FEA03334CEA133302D0524263EB430394EA050F00F0A780A4F10104D5F1200EF9
:403140000DDB02FA0EFC22FA05F2801841F1000103FA0EF2801843FA05F359410EE0A5F120050EF1200E012A03FA0EFC28BF4CF0020C43FA05F3C01851EBE37101F0004513
:4031800007D54FF0000EDCF1000C7EEB00006EEB0101B1F5801F1BD3B1F5001F0CD349085FEA30004FEA3C0C04F101044FEA445212F5800F80F09A80BCF1004F08BF5FEA32
:4031C000500C50F1000041EB045141EA050130BD5FEA4C0C404141EB010111F4801FA4F10104E9D191F0000F04BF01460020B1FA81F308BF2033A3F10B03B3F120020CDA0A
:403200000C3208DD02F1140CC2F10C0201FA0CF021FA02F10CE002F11402D8BFC2F1200C01FA02F120FA0CFCDCBF41EA0C019040E41AA2BF01EB0451294330BD6FEA04041A
:403240001F3C1CDA0C340EDC04F11404C4F1200220FA04F001FA02F340EA030021FA04F345EA030130BDC4F10C04C4F1200220FA02F001FA04F340EA0300294630BD21FA54
:4032800004F0294630BD94F0000F83F4801306BF81F480110134013D4EE77FEA645C18BF7FEA655C29D094EA050F08BF90EA020F05D054EA000C04BF1946104630BD91EAA8
:4032C000030F1EBF0021002030BD5FEA545C05D14000494128BF41F0004130BD14F580043CBF01F5801130BD01F0004545F0FE4141F470014FF0000030BD7FEA645C1ABF58
:40330000194610467FEA655C1CBF0B46024650EA013406BF52EA033591EA030F41F4002130BD00BF90F0000F04BF0021704730B54FF4806404F132044FF000054FF000011E
:4033400050E700BF90F0000F04BF0021704730B54FF4806404F1320410F0004548BF40424FF000013EE700BF42004FEAE2014FEA31014FEA02701FBF12F07F4393F07F4F9D
:4033800081F06051704792F0000F14BF93F07F4F704730B54FF4607401F0004521F0004120E700BF50EA010208BF704730B54FF000050AE050EA010208BF704730B511F00F
:4033C000004502D5404261EB41014FF4806404F132045FEA915C3FF4DCAE4FF003025FEADC0C18BF03325FEADC0C18BF033202EBDC02C2F1200300FA03FC20FA02F001FAFD
:4034000003FE40EA0E0021FA02F11444C1E600BF70B54FF0FF0C4CF4E06C1CEA11541DBF1CEA135594EA0C0F95EA0C0F00F0DEF82C4481EA030621EA4C5123EA4C5350EA6C
:40344000013518BF52EA033541F4801143F4801338D0A0FB02CE4FF00005E1FB02E506F00042E0FB03E54FF00006E1FB03569CF0000F18BF4EF0010EA4F1FF04B6F5007FCB
:4034800064F5407404D25FEA4E0E6D4146EB060642EAC62141EA55514FEAC52040EA5E504FEACE2EB4F1FD0C88BFBCF5E06F1ED8BEF1004F08BF5FEA500E50F1000041EBC6
:4034C000045170BD06F0004646EA010140EA020081EA0301B4EB5C04C2BFD4EB0C0541EA045170BD41F480114FF0000E013C00F3AB8014F1360FDEBF002001F0004170BD70
:40350000C4F10004203C35DA0C341BDC04F11404C4F1200500FA05F320FA04F001FA05F240EA020001F0004221F0004110EBD37021FA04F642EB06015EEA430E08BF20EAB5
:40354000D37070BDC4F10C04C4F1200500FA04F320FA05F001FA04F240EA020001F0004110EBD37041F100015EEA430E08BF20EAD37070BDC4F1200500FA05F24EEA020E8F
:4035800020FA04F301FA05F243EA020321FA04F001F0004121FA04F220EA020000EBD3705EEA430E08BF20EAD37070BD94F0000F0FD101F00046400041EB010111F4801FB4
:4035C00008BF013CF7D041EA060195F0000F18BF704703F00046520043EB030313F4801F08BF013DF7D043EA0603704794EA0C0F0CEA135518BF95EA0C0F0CD050EA4106C9
:4036000018BF52EA4306D1D181EA030101F000414FF0000070BD50EA410606BF1046194652EA430619D094EA0C0F02D150EA013613D195EA0C0F05D152EA03361CBF10463F
:4036400019460AD181EA030101F0004141F0FE4141F470014FF0000070BD41F0FE4141F4780170BD70B54FF0FF0C4CF4E06C1CEA11541DBF1CEA135594EA0C0F95EA0C0FBF
:4036800000F0A7F8A4EB050481EA030E52EA03354FEA013100F088804FEA03334FF0805545EA131343EA12634FEA022245EA111545EA10654FEA00260EF000419D4208BF7C
:4036C000964244F1FD0404F5407402D25B084FEA3202B61A65EB03055B084FEA32024FF480104FF4002CB6EB020E75EB030E22BFB61A754640EA0C005B084FEA3202B6EBFC
:40370000020E75EB030E22BFB61A754640EA5C005B084FEA3202B6EB020E75EB030E22BFB61A754640EA9C005B084FEA3202B6EB020E75EB030E22BFB61A754640EADC008E
:4037400055EA060E18D04FEA051545EA16754FEA06164FEAC30343EA52734FEAC2025FEA1C1CC0D111F4801F0BD141EA00014FF000004FF0004CB6E711F4801F04BF0143EE
:403780000020B4F1FD0C88BFBCF5E06F3FF6AFAEB5EB030C04BFB6EB020C5FEA500C50F1000041EB045170BD0EF0004E4EEA113114EB5C04C2BFD4EB0C0541EA045170BD8A
:4037C00041F480114FF0000E013C90E645EA060E8DE60CEA135594EA0C0F08BF95EA0C0F3FF43BAF94EA0C0F0AD150EA01347FF434AF95EA0C0F7FF425AF104619462CE7F6
:4038000095EA0C0F06D152EA03353FF4FDAE1046194622E750EA410618BF52EA43067FF4C5AE50EA41047FF40DAF52EA43057FF4EBAE12E74FEA4102B2F1E04324BFB3F540
:40384000001CDCF1FE5C0DD901F0004C4FEAC0024CEA5070B2F1004F40EB830008BF20F00100704711F0804F21D113F13872BCBF01F00040704741F480114FEA5252C2F199
:403880001802C2F1200C10FA0CF320FA02F018BF40F001004FEAC1234FEAD32303FA0CFC40EA0C0023FA02F34FEA4303CCE77FEA625307D150EA01331EBF4FF0FE4040F435
:4038C0004000704701F0004040F0FE4040F40000704700BF4FEA4002B2F1FE4F0FD34FF09E03B3EB12620DD94FEA002343F0004310F0004F23FA02F018BF404270474FF0E4
:403900000000704712F1610F01D1420205D110F0004008BF6FF0004070474FF000007047014B1868704700BF6C81FF1F0E4B70B51E460E4C0025E41AA410A54204D056F8B5
:40394000253098470135F8E700F0FCFF084B094C1E46E41AA4100025A54204D056F8253098470135F8E770BD5049000050490000504900005849000010B5431E0A449142FE
:4039800004D011F8014B03F8014FF8E710BD03460244934202D003F8011BFAE7704700000FB40A4B13B51C6824B1A36913B9204600F04EF805AB049AA1682046019300F014
:4039C00057F902B0BDE8104004B070476C81FF1F014900F0A9B800BF5D45000010B50446002303604360836081814366C281036143618361194608225C30FFF7C8FF054B47
:403A000024626362044BA362044BE362044B236310BD00BF01420000234200005B4200007F42000070B568234D1E5D430E4605F1740100F097F8044640B1002180E84200ED
:403A40000C30A06005F16802FFF7A1FF204670BD836910B5044633BB8364C3640365124B124A1B688262984204BF0123836100F01FF86060204600F01BF8A060204600F0D7
:403A800017F80022E06004216068FFF7A7FF01220921A068FFF7A2FF02221221E068FFF79DFF0123A36110BDAC480000D1390000F8B51C4B07461E68B36913B93046FFF7C1
:403AC000C7FF4836B4687368013B04D4B4F90C507DB16834F8E733680BB13668F2E704213846FFF79FFF30600028F6D10C233B60F8BD4FF6FF73E3810123A381656625600F
:403B0000A560656025616561A5610822294604F15C00FFF73CFF6563A563A564E5642046F8BD00BFAC4800002DE9F8438046894600F14804002694B1A5686768013F0CD4D4
:403B4000AB89012B07D9B5F90E30013303D029464046C84706436835F0E72468EBE73046BDE8F88370B5CD1C25F0030508350C2D38BF0C25002D064601DBA94202D90C234A
:403B8000336046E000F094FD234B1C681A462146A1B10B685B1B0ED40B2B03D90B60CC18CD501EE08C420BBF63684B681360636018BF0C4615E00C464968E9E7174C23684E
:403BC0001BB9304600F00CFB20602946304600F007FB431C18D0C41C24F00304A0420DD12560304600F065FD04F10B00231D20F00700C31A0ED05A42E25070BD211A304620
:403C000000F0EEFA0130EBD10C233360304600F050FD002070BD00BFD881FF1FD481FF1F936810B4013B002B936008DA9469A34202DBCBB20A2B02D110BC00F025BB1368FE
:403C4000581C10601970C8B210BC7047F8B506460F461446D518AC4208D03A4614F8011B3046FFF7DDFF431CF5D100E00020F8BD2DE9F04F9DB00C4617460393064618B1B9
:403C800083690BB9FFF7E4FE7F4B9C4201D1746808E07E4B9C4201D1B46803E07C4B9C4208BFF468A38918070CD5236953B10023099320238DF8293030238DF82A30DFF859
:403CC000D4B144E02146304600F044FB0028EED04FF0FF30D5E0039A111D12680391002A80F28C80524243F002000792049098F800302E2B00F08480032298F80010654810
:403D000000F0C8FC48B14023CBEB000003FA00F0049B08F101081843049098F8001006225D4808F101078DF8281000F0B3FC002800F09580594B002B40F08880039B07336A
:403D400023F0070308330393099B53440993B846454615F8013B1BB9B8EB07090FD003E0252BF9D0A846F3E74B463A4621463046FFF76CFF01307FD0099B4B44099398F854
:403D80000030002B78D000234FF0FF3204930793059206938DF853301A930127052229783F4800F077FC05F10108049B38B13C4A4546801A07FA00F018430490EEE7D90617
:403DC00044BF20228DF853201A0744BF2B228DF853202A782A2A3FF47EAF079A00210A20A84698F800300135303B092B03D800FB02320121F4E700293FF479AF079276E7D7
:403E000098F801302A2B0BD1039B08F102081A1D1B680392002BB8BF4FF0FF3305936BE700231946059308F101000A25804698F800200130303A092A03D805FB01210123FB
:403E4000F4E7002B3FF458AF059155E703AB00932246144B04A93046AFF3008007E003AB009322460F4B04A9304600F093F8B0F1FF3F82467FF468AFA3895B063FF528AF92
:403E800009981DB0BDE8F08FB0480000D0480000F0480000164900001A49000000000000104900004D3C00002DE9F04791461F460A698B6806469342B8BF1346C9F80030B3
:403EC00091F843200C46DDF8208012B10133C9F800302368990642BFD9F800300233C9F80030256815F0060510D104F1190A07E00123524639463046C04701301AD001354F
:403F0000E368D9F800209B1A9D42F1DB94F843302268003318BF012392060FD5E118302081F843005A1C94F845102244023382F8431003E04FF0FF30BDE8F08704F1430247
:403F400039463046C0470130F4D02268D9F80050E36802F00602042A08BF5D1B2269A3680CBF25EAE57500259342C4BF9B1AED184FF000091A344D4509D0012322463946E6
:403F80003046C0470130D5D009F10109F3E70020BDE8F0872DE9F04317460A7E85B06E2A984606460C460C9B01F1430E00F0AE8011D8632A22D009D8002A00F0BB80582AF5
:403FC00040F0CA8081F84520834955E0642A1ED0692A1CD0C0E0732A00F0B08009D86F2A2ED0702A40F0B8800A6842F020020A603EE0752A24D0782A3AD0ADE01A6801F108
:404000004205111D1960136884F84230A8E021681A6811F0800F02D0111D196008E011F0400F02F10401196002D0B2F9003000E01368002B3CDA2D225B4284F8432037E0B9
:4040400021681A6811F0800F02D0111D196007E011F0400F02F10401196001D0138800E01368227E5C496F2A14BF0A2208221BE078225A4984F845202268186812F0800F02
:4040800000F104051D6003D1550601D5038800E00368D00744BF42F0200222601BB9226822F0200222601022002084F8430001E049490A226568002DA56008DB206820F0C0
:4040C000040020602BB9002D7DD175460CE0002B79D07546B3FBF2F002FB1033CB5C05F8013D03460028F5D1082A0BD12368DA0708D5236962689A42DEBF302305F8013CEB
:4041000005F1FF35C5EB0E0323612EE008681A6810F0800F496903D0101D1860136808E010F0400F02F104001860136801D0198000E0196000232361754616E01A68111DF0
:404140001960156800216268284600F0A3FA08B1401B6060636804E004F1420584F8422001232361002384F84330CDF800803B4603AA21463046FFF797FE013002D14FF0EE
:40418000FF3026E023692A4639463046C0470130F5D023689B0710D5002504F1190907E001234A4639463046C0470130E7D00135E368039A9B1A9D42F2DBE068039B9842D0
:4041C000B8BF184605E00B7804F1420584F842308AE705B0BDE8F083214900003249000038B5064C0023054608462360FCF7D8FF431C02D1236803B12B6038BD70BDFF1FB1
:4042000010B50C46B1F90E1000F0A0FA0028ABBF636DA3891B1823F48053ACBF6365A38110BD2DE9F0411F468B890546DB050C46164605D502230022B1F90E1000F0B8F923
:40424000A389324623F48053A381B4F90E103B462846BDE8F04100F06BB810B50C46B1F90E1000F0A5F9431CA38915BF606523F4805343F48053A38118BFA38110BDB1F9CE
:404280000E1000F0D5B80000F8B50F461446064618B183690BB9FFF7DBFB224B9C4201D1746808E0204B9C4201D1B46803E01F4B9C4208BFF468A369A360A3891A0709D5D6
:4042C00023693BB123682069FDB2181A636998420FDB08E02146304600F03CF80028F1D04FF0FF30F8BD2146304600F037F90028F6D1A368013BA36023685A1C22601F7084
:404300006269431C934204D0A389DB0707D50A2D05D12146304600F021F90028E0D12846F8BD00BFB0480000D0480000F048000038B5074C054608461146002222601A4695
:4043400000F060FA431C02D1236803B12B6038BD70BDFF1F324B70B51D6806460C4625B1AB6913B92846FFF773FB2E4B9C4201D16C6808E02C4B9C4201D1AC6803E02B4BF1
:404380009C4208BFEC68B4F90C309AB215071DD4D00602D4092232603AE0510712D5616B41B104F14403994202D0304600F082F900236363A38923F02403A381002363601F
:4043C00023692360A38943F00803A38123694BB9A38903F42073B3F5007F03D02146304600F01CF9A28912F0010305D00023A36063695B42A36103E0920758BF6369A36003
:4044000023695BB9B4F90C3003F0800080B230B143F04003A3814FF0FF3070BD002070BD6C81FF1FB0480000D0480000F048000038B5064C002305460846236000F0BAF977
:40444000431C02D1236803B12B6038BD70BDFF1F8A892DE9F041054610070C4659D44B68002B02DC0B6C002B17DDE66AAEB102F48052002392B22F682B600AB1606D15E0F6
:40448000216A01232846B047411C0FD12B686BB11D2B01D0162B03D12F600020BDE8F081A38943F04003A381BDE8F081A3895A0705D56368C01A636B0BB1236CC01A00230B
:4044C0000246E66A216A2846B047431CA38906D129681D2939D8204ACA40D60735D5002262602269D904226004D5421C01D12B6803B96065616B2F600029CED004F1440346
:40450000994202D0284600F0D5F800206063BDE8F0810F69002FC0D093070E680CBF4B690023C7EB06080F608B6002E00744C0EB0808B8F1000FB0DD43463A46216A284678
:40454000A66AB0470028F1DCA38943F04003A3814FF0FF30BDE8F0810100402038B50B6905460C46DBB118B183690BB9FFF770FA0C4B9C4201D16C6808E00B4B9C4201D168
:40458000AC6803E0094B9C4208BFEC68B4F90C302BB121462846BDE83840FFF759BF002038BD00BFB0480000D0480000F048000038B5074C054608461146002222601A46A2
:4045C00000F010F9431C02D1236803B12B6038BD70BDFF1F70B50E46B1F90E1090B0002914461D4606DA00232B60B3891A060ED540230EE001AA00F0BBF80028F3DB029A21
:4046000002F47042A2F500535A425A412A604FF480630020236010B070BD00008B8973B59E0705460C4610D401AB6A46FFF7D2FF009906462846FFF795FA68B9B4F90C300A
:404640009A0522D443F00203A38104F14703236023610123636118E00D4BAB62A389206043F08003A381009B20616361019B4BB1B4F90E10284600F08DF818B1A38943F0EA
:404680000103A381A0893043A08102B070BD00BFD139000010B5C9B202449042034605D01C7801308C42F8D1184610BD002010BD7047704738B50546002944D051F8043C17
:4046C0000C1F002BB8BFE418FFF7F2FF1E4A1368114613B96360146030E0A3420DD92268A018834201BF18685B681218226063600C6023E0A24203D813465A68002AF9D13C
:4047000018681918A1420BD12168014458188242196013D110685268014419605A600DE002D90C232B6009E021686018824201BF106852680918216062605C602846BDE8AB
:404740003840FFF7B6BF38BDD881FF1F38B5074C054608461146002222601A4600F04AF8431C02D1236803B12B6038BD70BDFF1F38B5074C0023054608461146236000F082
:4047800021F8431C02D1236803B12B6038BD00BF70BDFF1F38B5064C002305460846236000F018F8431C02D1236803B12B6038BD70BDFF1F024B58221A604FF0FF307047C5
:4047C00070BDFF1F024B58221A604FF0FF30704770BDFF1F024B58221A600020704700BF70BDFF1F024B58221A604FF0FF30704770BDFF1F024B58221A604FF0FF30704784
:4048000070BDFF1F024B58221A604FF0FF30704770BDFF1F0000000014001E00280050007800FA00F401E803623A2025692C2025690A00004572726F72000000945A00401A
:404840000D5100402443004010010000005B00401D51004004400000985A00403D51004020020000435B0040435B004001020000405100403000F0510040100000000140A1
:40488000001000140140800400190140000300400140000A004C014000020050014020008018014070040048800043000C81FF1F00000000000000000000000000000000E4
:4048C00000000000000000000000000000000000000000000000000000000000000000000000000000000000000000000000000000000000000000000000000000000000B8
:4049000000000000000000000000000000000000232D302B2000686C4C0065666745464700303132333435363738394142434445460030313233343536373839616263644F
:4049400065660000F8B500BFF8BC08BC9E4670474D0000001D120000F8B500BFF8BC08BC9E4670472900000078490000C880FF1FA8000000083C00000000000078BDFF1F63
:40498000FFFFFFFFFF00000080808080808080808080808080808080FF0000007F800000010000000000E02EC05D00001800000000366E01010000000038000000000000DC
:4049C000B0480000D0480000F048000000000000000000000000000000000000AA48000000000000000000000000000000000000000000000000000000000000000000007D
:404A0000000000000000000000000000000000000000000000000000000000000C81FF1F0000000000000000000000000000000000000000000000000000000000000000CB
:404A40000000000000000000000000000000000000000000000000000000000000000000000000000000000000000000000000000000000000000000000000000000000036
:404A800000000000000000000000000000000000000000000000000000000000000000000000000000000000000000000000000000000000000000000000000000000000F6
:404AC00000000000000000000000000000000000000000000000000000000000000000000000000000000000000000000000000000000000000000000000000000000000B6
:404B00000000000000000000000000000000000000000000000000000000000000000000000000000000000000000000000000000000000000000000000000000000000075
:020000040003F7
:0200000480007A
:4000000002520040015A00400264004001650040030701403F0801402B090140040A0140010B014036140140181501400117014016180140491901405B1A01403B1B0140B0
:4000400008400140034101400342014006430140024401400345014004460140044701400548014004490140024C01400C4D01400550014002510140618064408F01880F20
:40008000893889728D10E240E602070117011C01210127012901340137013E103F405401580459045B045D305F018119834284058559861887048A028B468C1D8D5F901017
:4000C00091019418951898089B019E029F20A320A508A604A818A947AA05AB18AC18AD10AE05B201B31FB402B520B61CB758B808BA82BB08BE10BF10D418D604D804D9043E
:40010000DB04DC33DD30DF0100480308081109080B020E010F02122918441B481E082124224C2640281129622A082F643002310C32503708384039283A013F0459815A803D
:400140005D105E896004624063408740B502C007C28FC407CAEFCC4FCE4FD6F1D80DB802BE01D804DF011D024030410249FF4AFF4BFF4DA04F0450185A045F01604062C07A
:400180006440654066C068C06AC06CC06EC08202880896069E04AE01B008B201B406BE01C030C102C510C620C80EC9FFCAFFCBFFCDAFCE0FCF04D018D280D804DA04DB04A1
:4001C000DF01E040E2C0E440E540E6C0E8C0EAC0ECC0EEC0051006400D080F0117801C101D181E404010412045284F015520564077808E409D10C050C2A0C480D066E640EF
:40020000E820EC109D100403050206040A0817011A051C031E0C2101240A2604280329012A043303360F39083A80580459045C335F01004601200410061009080A840E0109
:400240000F0410901201131014041708180119211E011F402110222023202410271029202A012B402C042F443108320433013708384039143F04404141104204480449A2B1
:4002800053015B2069146B0170807144720873109040920895209620978E981099809D679E099F08A340A406A620A721B130B240B320C06FC2CEC46FCAA5CC43CE4ED00DAD
:4002C000D20CD60404040503060A090310081101120413061C011D021F01240E280E2C022E043001340E350437033E014006474049FF4A074BFF4C404D204EF04F055008E5
:40030000580459045A045C335D035F01604061A862406320840986D0871388DC8A228E03940C952C9671970398149B0C9C109EACA010A131A240A306A931AA20AB0EAF08FF
:40034000B2E0B330B50FB61FB908BA08BB20BF04C042C103C50BC6C0C7E0C829C9FFCAFFCBFFCEF0CF44D00CD804D904DA04DC33DD03DF01E6C0EA40EB0200040540071807
:400380000A810C400D080F08100211141502160818441D481E011F042250260427082C402F4630023240371839143E083F044440450846084A044B044F0851015302561036
:4003C00057218040880391149380940496A0970C9B109E109F08A403A721C0E4C2E9C457CAB0CC69CE46D0E0D204E404E820EC103220330235883C4053025980CCF0CE206B
:4004000094409D88A62094409D88A62086208D0894409D88A620E6407C01DE0130209401CC0844109401A420D0019C10A420B401EC08210124C094409D80C8C08D809D80C9
:40044000B101B4409C10A42010C07001800188C0B010B420C408DC01E201E601E804EC0800080C0810091A011C0800FF10020000110040003302800033020C003F01000069
:40048000220240000C013300000033000000000008010000040000000C0100000F003000300000010F02C00000002000000040046204050001C000E022FFFFFF62A0F04148
:4004C0000C00000000000211040404043333000100000000000040020010301000101012000000000000000000000000000000000000000000000100800040808000800061
:4005000000000000001B1B000000C000000202000000000000000000000052000E001801000000000000000000000000000000000000000000000000000000000000000048
:40054000000000000000000000000000000000000000000000000000000000000000000000000000000000000000000000000000000000000000000000000000000000007B
:40058000000000000000000000000000000000000000000000000000000000000000000000000000000000000000000000000000000000000000000000000000000000003B
:4005C00000000000000000000000000000000000000000000000000000000000000000000000000000000000000000000000000000000000000000000000000000000000FB
:4006000000000000000000000000000000000000000000000000000000000000000000000000000000000000000000000000000000000000000000000000000000000000BA
:0200000490006A
:0400000000004005B7
:0200000490105A
:04000000BC90ACAF55
:0200000490303A
:020000004B555E
:0200000490402A
:4000000000000000000000000000000000000000000000000000000000000000000000000000000000000000000000000000000000000000000000000000000000000000C0
:400040000000000000000000000000000000000000000000000000000000000000000000000000000000000000000000000000000000000000000000000000000000000080
:400080000000000000000000000000000000000000000000000000000000000000000000000000000000000000000000000000000000000000000000000000000000000040
:4000C0000000000000000000000000000000000000000000000000000000000000000000000000000000000000000000000000000000000000000000000000000000000000
:0200000490501A
:0C00000000012E16106900012E335BBEBB
:00000001FF